:10000000370100017310003073104030374F00008B
:10001000130F0F0873105F307310103473102034F7
:10002000370FFFFF23000F00EF00800C930E7000CE
:10003000370FFFFF130F2F002300DF01130F010005
:10004000B74E0000330FDF4123200F00130F4F0086
:1000500063742F006FF05FFF370FFFFF130F4F0028
:0C00600023200F0037010001670005009D
:10006C003707FFFF8347070093F71700E38C07FE62
:10007C00B707FFFF03C517001375F50F3707FFFF11
:10008C008347070093F72700E38C07FEB707FFFFB2
:10009C00A380A700930705FD93F7F70F13079000B4
:1000AC006366F700130505FD678000009307F5FBF9
:1000BC0093F7F70F130750006366F700130595FCD1
:1000CC00678000009307F5F993F7F70F13075000BB
:1000DC006366F700130595FA678000001305F0FFBF
:1000EC0067800000130181FC232A1102232881025E
:1000FC0023269102232421032322310323204103AD
:10010C00232E5101232C6101232A71012328810103
:10011C00232691012324A101B71700009387E7A39D
:10012C002312F100B707FFFF130770002381E700CC
:10013C003707FFFF8347070093F72700E38C07FE81
:10014C0003474100B707FFFFA380E7003707FFFF16
:10015C008347070093F72700E38C07FE0347510002
:10016C00B707FFFFA380E700930400003704FFFFED
:10017C001309A003130AA00393091000B70A100077
:10018C00938A0AFF6F0040042300AC00130C1C0080
:10019C00938C1C0063089D0BEFF09FEC131545002E
:1001AC00137BF50FEFF0DFEB3305AB001375F50F99
:1001BC00E38C0BFCE38E3BFD93948400B30495001D
:1001CC006FF01FFD939404018347040093F717000D
:1001DC00E38C07FE8347140093F7F70FE39627FF92
:1001EC008347040093F72700E38C07FEA300440128
:1001FC00EFF01FE7131D4500EFF09FE6330DA5014F
:10020C00130B4000130C0000131C4C00EFF05FE5C7
:10021C00330C8501130BFBFFE3180BFEEFF05FE4CF
:10022C00931B4500EFF0DFE3B30B7501B3B7790116
:10023C009387F7FFB3F4F400338C8401930C000024
:10024C00E34CA0F59306A0008347040093F7170036
:10025C00E38C07FE034714001377F70F8347040062
:10026C0093F72700E38C07FEA300E400E31ED7FC02
:10027C0093074000E388FBF493072000638EFB0692
:10028C00E3943BF53707FFFF8347070093F72700FD
:10029C00E38C07FE03474100B707FFFFA380E7008D
:1002AC003707FFFF8347070093F72700E38C07FE10
:1002BC0003475100B707FFFFA380E7001385040035
:1002CC0083204103032401038324C10203298102F7
:1002DC0083294102032A0102832AC101032B8101D4
:1002EC00832B4101032C0101832CC100032D8100C0
:1002FC00130181036780000093944400B3F454010C
:04030C006FF09FEC03
:020000040011E9
:0400000000000000FC
:040000030000408039
:00000001FF
